:100000000C9462000C948A000C948A000C948A0070
:100010000C948A000C948A000C948A000C948A0038
:100020000C948A000C948A000C948A000C94290386
:100030000C948A000C948A000C948A000C948A0018
:100040000C94DF020C948A000C94AD020C9487028D
:100050000C948A000C948A000C948A000C948A00F8
:100060000C948A000C948A000000000025002800EF
:100070002B0000000000240027002A0000000000E0
:1000800023002600290004040404040404040202DA
:100090000202020203030303030301020408102007
:1000A0004080010204081020010204081020000012
:1000B0000008000201000003040700000000000027
:1000C0000000EA0311241FBECFEFD8E0DEBFCDBF92
:1000D00021E0A4E1B1E001C01D92A33EB207E1F727
:1000E00011E0A0E0B1E0E6E6FCE002C005900D9270
:1000F000A431B107D9F710E0C2E6D0E004C02197DF
:10010000FE010E94C305C136D107C9F70E94480409
:100110000C9431060C940000CF92DF92EF92FF9284
:10012000DC01A03282E0B8070CF03EC0B7FD06C08B
:10013000A53BB1052CF0A4EBB0E002C0A0E0B0E01C
:100140008091E10128E830E06901C81AD10887FDF3
:10015000D394CC0CDD1CCC0CDD1C0D2C000CEE085B
:10016000FF088091E20128E532E0281B310987FD74
:100170003395220F331F220F331FA901330F660B54
:10018000770B9A01AB012C193D094E095F090E94BA
:10019000F80524EB30E040E050E00E94CE05C20EAE
:1001A000D31EE41EF51ED6019091E0019C3098F517
:1001B0008091E10148E850E0481B510987FD5395C3
:1001C000440F551F440F551FA417B5078CF080919D
:1001D000E20128E532E0281B310987FD3395220F23
:1001E000331F220F331FAD012A173B070CF4A9015F
:1001F00042505109440F551F2FB7F894892F90E0B2
:10020000FC01EE0FFF1F8E0F9F1FFC01E554FE4FF8
:10021000528341832FBFFF90EF90DF90CF900895DE
:10022000CF92DF92EF92FF920F931F93CF93DF93C2
:100230006C017A018B01C0E0D0E0CE15DF0589F0BA
:10024000D8016D918D01D601ED91FC910190F08165
:10025000E02DC6010995892B11F47E0102C021967B
:10026000ECCFC701DF91CF911F910F91FF90EF90DD
:10027000DF90CF900895FC01918D828D981761F0E9
:10028000828DDF01A80FB11D5D968C91928D9F5FCD
:100290009F73928F90E008958FEF9FEF0895FC0178
:1002A000918D828D981731F0828DE80FF11D858D2B
:1002B00090E008958FEF9FEF0895FC01918D228DBE
:1002C000892F90E0805C9F4F821B91098F73992743
:1002D00008958EE191E00E945D0121E0892B09F4EF
:1002E00020E0822F0895FC01848DDF01A80FB11D4D
:1002F000A35ABF4F2C91848D90E001968F7399275C
:10030000848FA689B7892C93A089B1898C91806448
:100310008C93938D848D981306C00288F389E02D09
:1003200080818F7D80830895EF92FF920F931F93BA
:10033000CF93DF93EC0181E0888F9B8D8C8D981398
:1003400005C0E889F989808185FD24C0F62E0B8DD2
:1003500010E00F5F1F4F0F731127E02E8C8DE812F6
:100360000CC00FB607FCFACFE889F989808185FFB8
:10037000F5CFCE010E947301F1CF8B8DFE01E80F06
:10038000F11DE35AFF4FF0820B8FEA89FB898081D0
:10039000806207C0EE89FF896083E889F9898081DE
:1003A0008064808381E090E0DF91CF911F910F9175
:1003B000FF90EF900895CF93DF93EC01888D882311
:1003C000C9F0EA89FB89808185FD05C0A889B989C2
:1003D0008C9186FD0FC00FB607FCF5CF808185FF9D
:1003E000F2CFA889B9898C9185FFEDCFCE010E940B
:1003F0007301E7CFDF91CF91089580E090E0892BE2
:1004000029F00E94690181110C9400000895833045
:1004100081F028F4813099F08230A1F0089587307E
:10042000A9F08830B9F08430D1F4809180008F7DBC
:1004300003C0809180008F7780938000089584B5F9
:100440008F7702C084B58F7D84BD08958091B00000
:100450008F7703C08091B0008F7D8093B0000895A6
:100460001F93CF93DF93282F30E0F901E255FF4F20
:100470008491F901E656FF4FD491F901EA57FF4FF5
:10048000C491CC23C9F0162F81110E940702EC2FD2
:10049000F0E0EE0FFF1FE859FF4FA591B4918FB721
:1004A000F894111105C09C91ED2FE095E92302C04D
:1004B000EC91ED2BEC938FBFDF91CF911F910895BD
:1004C0003FB7F89480911A0190911B01A0911C01F3
:1004D000B0911D0126B5A89B05C02F3F19F00196CC
:1004E000A11DB11D3FBFBA2FA92F982F8827820FBA
:1004F000911DA11DB11DBC01CD0142E0660F771F0A
:10050000881F991F4A95D1F708950E94C9051F9227
:100510000F920FB60F9211242F933F934F935F9337
:100520006F937F938F939F93AF93BF93EF93FF93BB
:100530008EE191E00E947301FF91EF91BF91AF9125
:100540009F918F917F916F915F914F913F912F91EB
:100550000F900FBE0F901F9018951F920F920FB61D
:100560000F9211242F938F939F93EF93FF93E0911A
:100570002E01F0912F018081E0913401F09135013D
:1005800082FD12C09081809137018F5F8F7320911F
:100590003801821751F0E0913701F0E0E25EFE4F42
:1005A000958F8093370101C08081FF91EF919F91DA
:1005B0008F912F910F900FBE0F901F9018951F9243
:1005C0000F920FB60F9211242F933F938F939F9307
:1005D000AF93BF938091160190911701A0911801DC
:1005E000B09119013091150123E0230F2D3720F42C
:1005F0000196A11DB11D05C026E8230F0296A11D7D
:10060000B11D209315018093160190931701A093BB
:100610001801B093190180911A0190911B01A091CA
:100620001C01B0911D010196A11DB11D80931A01FD
:1006300090931B01A0931C01B0931D01BF91AF913A
:100640009F918F913F912F910F900FBE0F901F9010
:1006500018951F920F920FB60F9211242F933F936C
:100660004F935F936F937F938F939F93AF93BF93BA
:10067000EF93FF938091140187FF05C010928500CE
:10068000109284001BC020911401022E000C330B29
:100690008091DF0190E02817390784F480911401DC
:1006A000082E000C990BFC01EE0FFF1F8E0F9F1FF1
:1006B000FC01E554FE4F808186FD15C08091140138
:1006C0008F5F8093140120911401022E000C330BD4
:1006D0008091DF0190E028173907C4F4809114015C
:1006E0008C3064F113C080911401082E000C990B1A
:1006F000FC01EE0FFF1F8E0F9F1FFC01E554FE4F04
:10070000808160E08F730E943002D8CF8091840096
:1007100090918500049680349C4918F480E49CE90B
:1007200005C0809184009091850004969093890083
:10073000809388008FEF809314013BC02091840048
:100740003091850080911401082E000C990BFC015A
:10075000EE0FFF1F8E0F9F1FFC01E554FE4F81819E
:100760009281820F931F90938900809388008091DB
:100770001401082E000C990BFC01EE0FFF1F8E0FC9
:100780009F1FFC01E554FE4F808186FF12C08091BF
:100790001401082E000C990BFC01EE0FFF1F8E0FA9
:1007A0009F1FFC01E554FE4F808161E08F730E9422
:1007B0003002FF91EF91BF91AF919F918F917F9107
:1007C0006F915F914F913F912F910F900FBE0F90BE
:1007D0001F901895109221011092200188EE93E04D
:1007E000A0E0B0E08093220190932301A093240124
:1007F000B093250188E091E090931F0180931E0142
:1008000085EC90E090932B0180932A0184EC90E09A
:1008100090932D0180932C0180EC90E090932F0118
:1008200080932E0181EC90E0909331018093300110
:1008300082EC90E0909333018093320186EC90E05B
:100840009093350180933401109237011092380152
:100850001092390110923A018091DF018C30A0F49E
:1008600091E0980F9093DF018093E00190E0FC010C
:10087000EE0FFF1F8E0F9F1FFC01E554FE4F88EB0C
:100880009BE09283818308958FEF8093E001089528
:10089000789484B5826084BD84B5816084BD85B55B
:1008A000826085BD85B5816085BD80916E00816067
:1008B00080936E001092810080918100826080930D
:1008C000810080918100816080938100809180000F
:1008D0008160809380008091B10084608093B1003A
:1008E0008091B00081608093B00080917A00846034
:1008F00080937A0080917A00826080937A00809160
:100900007A00816080937A0080917A008068809379
:100910007A001092C100E0912E01F0912F0182E047
:100920008083E0912A01F0912B011082E0912C014B
:10093000F0912D018FEC808310923601E09132010D
:10094000F091330186E08083E0913001F091310134
:10095000808180618083E0913001F091310180815C
:1009600088608083E0913001F0913101808180685E
:100970008083E0913001F091310180818F7D80830F
:100980008091E0018C3008F068C0E2EAF0E0249148
:10099000EEE8F0E08491882399F090E0880F991FA9
:1009A000FC01EE58FF4FA591B491FC01E859FF4FAF
:1009B000859194918FB7F894EC91E22BEC938FBFD3
:1009C0008091E001E82FF0E09F01220F331FE20F3A
:1009D000F31FE554FE4F9081907C986090831092B5
:1009E000E1011092E2016CE00E94A8052CE0829FD8
:1009F000B001112440E050E09A01260F371FF901A1
:100A0000EE0FFF1F2E0F3F1FF901E554FE4F90819F
:100A100096FD16C04F5F5F4F4C30510569F781114D
:100A20000FC01092800082E08093810010928500B8
:100A300010928400B19A80916F00826080936F0061
:100A4000E091E001F0E0CF01880F991FE80FF91F56
:100A5000E554FE4F80818064808380E090E00E94B6
:100A60008C0003EA10E020E4322E44244A9433E060
:100A7000532E612C712CE7EBF0E08491F801D491B6
:100A8000EFE8F0E0C491CC2309F440C081110E944A
:100A90000702EC2FF0E0EE0FFF1FE458FF4FA59187
:100AA000B4918C91D82391F1C6EADFEFCE010E9478
:100AB0008C000E9460024B015C018AE0C82ED12CA0
:100AC000E12CF12C0E946002DC01CB01881999090C
:100AD000AA09BB09883E9340A105B10558F0F1E091
:100AE000CF1AD108E108F10828EE820E23E0921E09
:100AF000A11CB11CC114D104E104F10419F7219621
:100B0000CA35D10599F60E94FD01B5CF30927C001F
:100B100080917A00806480937A0080917A0086FDCB
:100B2000FCCF209178008091790030E0382BADE443
:100B3000BFEF0E94B405A30192010E94CE05DA0125
:100B4000C9018D549F4FAF4FBF4F0E948C00DBCF28
:100B5000991B79E004C0991F961708F0961B881F0F
:100B60007A95C9F7809508950E942206332312F4DE
:100B70008A1B9B0B0C94BE050E942206B7FF0895AA
:100B8000821B930B0895EE0FFF1F0590F491E02D4B
:100B9000099481E090E0F8940C943106052E97FBBF
:100BA0001EF400940E94E50557FD07D00E94000640
:100BB00007FC03D04EF40C94E50550954095309514
:100BC00021953F4F4F4F5F4F0895909580957095B9
:100BD00061957F4F8F4F9F4F08950E942206A59FDA
:100BE000900DB49F900DA49F800D911D1124089528
:100BF000B7FF0C94ED050E94ED05821B930B089541
:100C0000A1E21A2EAA1BBB1BFD010DC0AA1FBB1F10
:100C1000EE1FFF1FA217B307E407F50720F0A21B82
:100C2000B30BE40BF50B661F771F881F991F1A94EF
:100C300069F760957095809590959B01AC01BD0119
:100C4000CF010895A29FB001B39FC001A39F700D73
:100C5000811D1124911DB29F700D811D1124911DC4
:060C60000895F894FFCF97
:100C66000100000000000000940110015D013B013D
:040C76004F01DB014E
:107E0000112484B714BE81FFF0D085E080938100F7
:107E100082E08093C00088E18093C10086E0809377
:107E2000C20080E18093C4008EE0C9D0259A86E02C
:107E300020E33CEF91E0309385002093840096BBD3
:107E4000B09BFECF1D9AA8958150A9F7CC24DD24C4
:107E500088248394B5E0AB2EA1E19A2EF3E0BF2EE7
:107E6000A2D0813461F49FD0082FAFD0023811F036
:107E7000013811F484E001C083E08DD089C08234E0
:107E800011F484E103C0853419F485E0A6D080C0E4
:107E9000853579F488D0E82EFF2485D0082F10E0AE
:107EA000102F00270E291F29000F111F8ED06801E7
:107EB0006FC0863521F484E090D080E0DECF843638
:107EC00009F040C070D06FD0082F6DD080E0C81688
:107ED00080E7D80618F4F601B7BEE895C0E0D1E017
:107EE00062D089930C17E1F7F0E0CF16F0E7DF06D8
:107EF00018F0F601B7BEE89568D007B600FCFDCFD4
:107F0000A601A0E0B1E02C9130E011968C91119780
:107F100090E0982F8827822B932B1296FA010C0160
:107F200087BEE89511244E5F5F4FF1E0A038BF0790
:107F300051F7F601A7BEE89507B600FCFDCF97BE46
:107F4000E89526C08437B1F42ED02DD0F82E2BD052
:107F50003CD0F601EF2C8F010F5F1F4F84911BD097
:107F6000EA94F801C1F70894C11CD11CFA94CF0C13
:107F7000D11C0EC0853739F428D08EE10CD085E9AC
:107F80000AD08FE07ACF813511F488E018D01DD067
:107F900080E101D065CF982F8091C00085FFFCCF94
:107FA0009093C60008958091C00087FFFCCF809118
:107FB000C00084FD01C0A8958091C6000895E0E648
:107FC000F0E098E1908380830895EDDF803219F02E
:107FD00088E0F5DFFFCF84E1DECF1F93182FE3DFCA
:107FE0001150E9F7F2DF1F91089580E0E8DFEE27F6
:047FF000FF270994CA
:027FFE00040479
:0400000300007E007B
:00000001FF
